:020000040000FA
:020000000528D1
:080008009F288B0183120313F2
:10001000831685018601870107308500F630870049
:1000200006309F0083120714871597019D01C03089
:100030008B00A501A301A401013090001F28250811
:100040000505031D2428442897019D01A600261CB0
:100050002F28230886002510A51425154428A61C42
:10006000372824088600A5102514251544280708DC
:10007000A600A60CA60CA60CA60C26080F39860016
:1000800025112514A51444289601950104309700E4
:1000900083160C1583120C118F018E010710FF308F
:1000A000A0000000000007140000000000008F1CEA
:1000B0005A285D2820185428832897015F2825088E
:1000C0000505031D632897019D01A600261C6E28C7
:1000D000230886002510A51425158328A61C76283C
:1000E00024088600A5102514251583280708A600D6
:1000F000A60CA60CA60CA60C26080F398600251106
:100100002514A51483289C019B0104309D008316AF
:100110000D1483120D108F018E018711FF30A00086
:100120000000000087150000000000008F1C9928C7
:100130009C28201893281F289D0125151F28003072
:10014000A0000C080C19A7280D18B328BF280C1103
:100150001608031DB0281508A30097012514BF2811
:10016000A3012514BF280D101C08031DBC281B0863
:10017000A4009D01A514BF28A401A514BF2809004F
:02400E00723FFF
:00000001FF
